{
  "contractName": "ForwardFactory",
  "abi": [
    {
      "inputs": [
        {
          "internalType": "contract Eth",
          "name": "_ethAddress",
          "type": "address"
        },
        {
          "internalType": "contract Dai",
          "name": "_daiAddress",
          "type": "address"
        },
        {
          "internalType": "contract IaEth",
          "name": "_aEthAddress",
          "type": "address"
        },
        {
          "internalType": "contract IaDai",
          "name": "_aDaiAddress",
          "type": "address"
        },
        {
          "internalType": "contract IAaveLendingPool",
          "name": "_aaveLpAddress",
          "type": "address"
        },
        {
          "internalType": "contract IAaveLendingPoolCore",
          "name": "_aaveLpcoreAddress",
          "type": "address"
        }
      ],
      "stateMutability": "nonpayable",
      "type": "constructor"
    },
    {
      "anonymous": false,
      "inputs": [
        {
          "indexed": false,
          "internalType": "address",
          "name": "contractAddress",
          "type": "address"
        }
      ],
      "name": "ForwardCreated",
      "type": "event"
    },
    {
      "anonymous": false,
      "inputs": [
        {
          "indexed": false,
          "internalType": "address",
          "name": "contractAddress",
          "type": "address"
        }
      ],
      "name": "ForwardDestroyed",
      "type": "event"
    },
    {
      "anonymous": false,
      "inputs": [
        {
          "indexed": false,
          "internalType": "address",
          "name": "contractAddress",
          "type": "address"
        }
      ],
      "name": "ForwardPaused",
      "type": "event"
    },
    {
      "anonymous": false,
      "inputs": [
        {
          "indexed": true,
          "internalType": "address",
          "name": "previousOwner",
          "type": "address"
        },
        {
          "indexed": true,
          "internalType": "address",
          "name": "newOwner",
          "type": "address"
        }
      ],
      "name": "OwnershipTransferred",
      "type": "event"
    },
    {
      "anonymous": false,
      "inputs": [
        {
          "indexed": false,
          "internalType": "address",
          "name": "account",
          "type": "address"
        }
      ],
      "name": "Paused",
      "type": "event"
    },
    {
      "anonymous": false,
      "inputs": [
        {
          "indexed": true,
          "internalType": "enum ForwardFactory.States",
          "name": "state",
          "type": "uint8"
        }
      ],
      "name": "StateChanged",
      "type": "event"
    },
    {
      "anonymous": false,
      "inputs": [
        {
          "indexed": false,
          "internalType": "address",
          "name": "account",
          "type": "address"
        }
      ],
      "name": "Unpaused",
      "type": "event"
    },
    {
      "inputs": [],
      "name": "aDai",
      "outputs": [
        {
          "internalType": "contract IaDai",
          "name": "",
          "type": "address"
        }
      ],
      "stateMutability": "view",
      "type": "function"
    },
    {
      "inputs": [],
      "name": "aEth",
      "outputs": [
        {
          "internalType": "contract IaEth",
          "name": "",
          "type": "address"
        }
      ],
      "stateMutability": "view",
      "type": "function"
    },
    {
      "inputs": [],
      "name": "aaveLendingPool",
      "outputs": [
        {
          "internalType": "contract IAaveLendingPool",
          "name": "",
          "type": "address"
        }
      ],
      "stateMutability": "view",
      "type": "function"
    },
    {
      "inputs": [],
      "name": "aaveLendingPoolCore",
      "outputs": [
        {
          "internalType": "contract IAaveLendingPoolCore",
          "name": "",
          "type": "address"
        }
      ],
      "stateMutability": "view",
      "type": "function"
    },
    {
      "inputs": [],
      "name": "dai",
      "outputs": [
        {
          "internalType": "contract Dai",
          "name": "",
          "type": "address"
        }
      ],
      "stateMutability": "view",
      "type": "function"
    },
    {
      "inputs": [],
      "name": "eth",
      "outputs": [
        {
          "internalType": "contract Eth",
          "name": "",
          "type": "address"
        }
      ],
      "stateMutability": "view",
      "type": "function"
    },
    {
      "inputs": [
        {
          "internalType": "uint256",
          "name": "",
          "type": "uint256"
        }
      ],
      "name": "listedForwards",
      "outputs": [
        {
          "internalType": "address payable",
          "name": "",
          "type": "address"
        }
      ],
      "stateMutability": "view",
      "type": "function"
    },
    {
      "inputs": [],
      "name": "newPosition",
      "outputs": [
        {
          "internalType": "address",
          "name": "",
          "type": "address"
        }
      ],
      "stateMutability": "view",
      "type": "function"
    },
    {
      "inputs": [],
      "name": "owner",
      "outputs": [
        {
          "internalType": "address",
          "name": "",
          "type": "address"
        }
      ],
      "stateMutability": "view",
      "type": "function"
    },
    {
      "inputs": [],
      "name": "paused",
      "outputs": [
        {
          "internalType": "bool",
          "name": "",
          "type": "bool"
        }
      ],
      "stateMutability": "view",
      "type": "function"
    },
    {
      "inputs": [],
      "name": "renounceOwnership",
      "outputs": [],
      "stateMutability": "nonpayable",
      "type": "function"
    },
    {
      "inputs": [
        {
          "internalType": "address",
          "name": "newOwner",
          "type": "address"
        }
      ],
      "name": "transferOwnership",
      "outputs": [],
      "stateMutability": "nonpayable",
      "type": "function"
    },
    {
      "inputs": [
        {
          "internalType": "uint256",
          "name": "_value",
          "type": "uint256"
        },
        {
          "internalType": "string",
          "name": "_tokenName",
          "type": "string"
        },
        {
          "internalType": "uint256",
          "name": "_exchangeRate",
          "type": "uint256"
        },
        {
          "internalType": "string",
          "name": "_exchangeToken",
          "type": "string"
        },
        {
          "internalType": "uint256",
          "name": "_expirationTime",
          "type": "uint256"
        },
        {
          "internalType": "uint256",
          "name": "_executingTime",
          "type": "uint256"
        }
      ],
      "name": "createForward",
      "outputs": [
        {
          "internalType": "contract Forward",
          "name": "",
          "type": "address"
        }
      ],
      "stateMutability": "payable",
      "type": "function"
    },
    {
      "inputs": [],
      "name": "getPositionState",
      "outputs": [
        {
          "internalType": "enum ForwardFactory.States",
          "name": "",
          "type": "uint8"
        }
      ],
      "stateMutability": "payable",
      "type": "function"
    },
    {
      "inputs": [],
      "name": "getPositions",
      "outputs": [
        {
          "internalType": "address payable[]",
          "name": "",
          "type": "address[]"
        }
      ],
      "stateMutability": "view",
      "type": "function"
    }
  ],
  "bytecode": "0x608060405260006009553480156200001657600080fd5b5060405162005ebf38038062005ebf83398181016040528101906200003c919062000443565b60006200004e6200036e60201b60201c565b9050806000806101000a81548173ffffffffffffffffffffffffffffffffffffffff021916908373ffffffffffffffffffffffffffffffffffffffff1602179055508073ffffffffffffffffffffffffffffffffffffffff16600073ffffffffffffffffffffffffffffffffffffffff167f8be0079c531659141344cd1fd0a4f28419497f9722a3daafe3b4186f6b6457e060405160405180910390a35060008060146101000a81548160ff02191690831515021790555084600460006101000a81548173ffffffffffffffffffffffffffffffffffffffff021916908373ffffffffffffffffffffffffffffffffffffffff16021790555085600360006101000a81548173ffffffffffffffffffffffffffffffffffffffff021916908373ffffffffffffffffffffffffffffffffffffffff16021790555083600560006101000a81548173ffffffffffffffffffffffffffffffffffffffff021916908373ffffffffffffffffffffffffffffffffffffffff16021790555082600660006101000a81548173ffffffffffffffffffffffffffffffffffffffff021916908373ffffffffffffffffffffffffffffffffffffffff16021790555081600760006101000a81548173ffffffffffffffffffffffffffffffffffffffff021916908373ffffffffffffffffffffffffffffffffffffffff16021790555080600860006101000a81548173ffffffffffffffffffffffffffffffffffffffff021916908373ffffffffffffffffffffffffffffffffffffffff160217905550600460009054906101000a900473ffffffffffffffffffffffffffffffffffffffff1673ffffffffffffffffffffffffffffffffffffffff1663095ea7b3827fffffffffffffffffffffffffffffffffffffffffffffffffffffffffffffffff6040518363ffffffff1660e01b81526004016200030b929190620004fb565b602060405180830381600087803b1580156200032657600080fd5b505af11580156200033b573d6000803e3d6000fd5b505050506040513d601f19601f8201168201806040525081019062000361919062000417565b50505050505050620006a0565b600033905090565b6000815190506200038781620005ea565b92915050565b6000815190506200039e8162000604565b92915050565b600081519050620003b5816200061e565b92915050565b600081519050620003cc8162000638565b92915050565b600081519050620003e38162000652565b92915050565b600081519050620003fa816200066c565b92915050565b600081519050620004118162000686565b92915050565b6000602082840312156200042a57600080fd5b60006200043a8482850162000376565b91505092915050565b60008060008060008060c087890312156200045d57600080fd5b60006200046d89828a01620003a4565b96505060206200048089828a016200038d565b95505060406200049389828a0162000400565b9450506060620004a689828a01620003e9565b9350506080620004b989828a01620003d2565b92505060a0620004cc89828a01620003bb565b9150509295509295509295565b620004e48162000528565b82525050565b620004f581620005e0565b82525050565b6000604082019050620005126000830185620004d9565b620005216020830184620004ea565b9392505050565b60006200053582620005c0565b9050919050565b60008115159050919050565b6000620005558262000528565b9050919050565b6000620005698262000528565b9050919050565b60006200057d8262000528565b9050919050565b6000620005918262000528565b9050919050565b6000620005a58262000528565b9050919050565b6000620005b98262000528565b9050919050565b600073ffffffffffffffffffffffffffffffffffffffff82169050919050565b6000819050919050565b620005f5816200053c565b81146200060157600080fd5b50565b6200060f8162000548565b81146200061b57600080fd5b50565b62000629816200055c565b81146200063557600080fd5b50565b620006438162000570565b81146200064f57600080fd5b50565b6200065d8162000584565b81146200066957600080fd5b50565b620006778162000598565b81146200068357600080fd5b50565b6200069181620005ac565b81146200069d57600080fd5b50565b61580f80620006b06000396000f3fe608060405260043610620000fe5760003560e01c80638c7c9e0c1162000097578063ddf320351162000061578063ddf320351462000317578063e9d337b81462000339578063f2fde38b1462000369578063f4b9fa75146200039757620000fe565b80638c7c9e0c14620002575780638da5cb5b1462000287578063a34e8fa014620002b7578063c0c3635c14620002e757620000fe565b8063597141c711620000d9578063597141c714620001a75780635c975abb14620001dd578063715018a6146200020d57806380275860146200022757620000fe565b8063030581a714620001035780630c85971314620001335780633ca558331462000177575b600080fd5b3480156200011057600080fd5b506200011b620003c7565b6040516200012a9190620013fa565b60405180910390f35b3480156200014057600080fd5b506200015f600480360381019062000159919062000e04565b620003ed565b6040516200016e919062001201565b60405180910390f35b3480156200018457600080fd5b506200018f6200042a565b6040516200019e9190620013a3565b60405180910390f35b620001c56004803603810190620001bf919062000e30565b62000450565b604051620001d4919062001386565b60405180910390f35b348015620001ea57600080fd5b50620001f562000842565b6040516200020491906200127f565b60405180910390f35b3480156200021a57600080fd5b506200022562000858565b005b3480156200023457600080fd5b506200023f620009b2565b6040516200024e91906200125b565b60405180910390f35b3480156200026457600080fd5b506200026f62000a42565b6040516200027e9190620012b9565b60405180910390f35b3480156200029457600080fd5b506200029f62000a68565b604051620002ae9190620011e4565b60405180910390f35b348015620002c457600080fd5b50620002cf62000a91565b604051620002de9190620013dd565b60405180910390f35b348015620002f457600080fd5b50620002ff62000ab7565b6040516200030e9190620011e4565b60405180910390f35b6200032162000add565b60405162000330919062001417565b60405180910390f35b3480156200034657600080fd5b506200035162000b20565b604051620003609190620013c0565b60405180910390f35b3480156200037657600080fd5b506200039560048036038101906200038f919062000dd8565b62000b46565b005b348015620003a457600080fd5b50620003af62000d12565b604051620003be91906200129c565b60405180910390f35b600560009054906101000a900473ffffffffffffffffffffffffffffffffffffffff1681565b60018181548110620003fb57fe5b906000526020600020016000915054906101000a900473ffffffffffffffffffffffffffffffffffffffff1681565b600860009054906101000a900473ffffffffffffffffffffffffffffffffffffffff1681565b60006200045c62000d38565b73ffffffffffffffffffffffffffffffffffffffff166000809054906101000a900473ffffffffffffffffffffffffffffffffffffffff1673ffffffffffffffffffffffffffffffffffffffff1614620004ed576040517f08c379a0000000000000000000000000000000000000000000000000000000008152600401620004e49062001478565b60405180910390fd5b600060149054906101000a900460ff161562000540576040517f08c379a0000000000000000000000000000000000000000000000000000000008152600401620005379062001456565b60405180910390fd5b60096000815480929190600101919050555042600a8190555082600b81905550600760009054906101000a900473ffffffffffffffffffffffffffffffffffffffff1673ffffffffffffffffffffffffffffffffffffffff1663d2d0e066600360009054906101000a900473ffffffffffffffffffffffffffffffffffffffff168960006040518463ffffffff1660e01b8152600401620005e4939291906200121e565b600060405180830381600087803b158015620005ff57600080fd5b505af115801562000614573d6000803e3d6000fd5b505050506000600360009054906101000a900473ffffffffffffffffffffffffffffffffffffffff16600460009054906101000a900473ffffffffffffffffffffffffffffffffffffffff16600954600560009054906101000a900473ffffffffffffffffffffffffffffffffffffffff16600660009054906101000a900473ffffffffffffffffffffffffffffffffffffffff16600760009054906101000a900473ffffffffffffffffffffffffffffffffffffffff16600860009054906101000a900473ffffffffffffffffffffffffffffffffffffffff166040518060600160405280600a5481526020018c81526020018b815250348e6040516200071c9062000d40565b620007319a99989796959493929190620012d6565b604051809103906000f0801580156200074e573d6000803e3d6000fd5b50905060008190506001819080600181540180825580915050600190039060005260206000200160009091909190916101000a81548173ffffffffffffffffffffffffffffffffffffffff021916908373ffffffffffffffffffffffffffffffffffffffff16021790555080600260006101000a81548173ffffffffffffffffffffffffffffffffffffffff021916908373ffffffffffffffffffffffffffffffffffffffff1602179055507f61c33c3f76d6fca5eb492626ce6811f4eae9b2fe00b388ac44b9a34421e417b4336040516200082b9190620011e4565b60405180910390a181925050509695505050505050565b60008060149054906101000a900460ff16905090565b6200086262000d38565b73ffffffffffffffffffffffffffffffffffffffff166000809054906101000a900473ffffffffffffffffffffffffffffffffffffffff1673ffffffffffffffffffffffffffffffffffffffff1614620008f3576040517f08c379a0000000000000000000000000000000000000000000000000000000008152600401620008ea9062001478565b60405180910390fd5b600073ffffffffffffffffffffffffffffffffffffffff166000809054906101000a900473ffffffffffffffffffffffffffffffffffffffff1673ffffffffffffffffffffffffffffffffffffffff167f8be0079c531659141344cd1fd0a4f28419497f9722a3daafe3b4186f6b6457e060405160405180910390a360008060006101000a81548173ffffffffffffffffffffffffffffffffffffffff021916908373ffffffffffffffffffffffffffffffffffffffff160217905550565b6060600180548060200260200160405190810160405280929190818152602001828054801562000a3857602002820191906000526020600020905b8160009054906101000a900473ffffffffffffffffffffffffffffffffffffffff1673ffffffffffffffffffffffffffffffffffffffff1681526020019060010190808311620009ed575b5050505050905090565b600360009054906101000a900473ffffffffffffffffffffffffffffffffffffffff1681565b60008060009054906101000a900473ffffffffffffffffffffffffffffffffffffffff16905090565b600660009054906101000a900473ffffffffffffffffffffffffffffffffffffffff1681565b600260009054906101000a900473ffffffffffffffffffffffffffffffffffffffff1681565b6000600a5442101562000af4576000905062000b1d565b600a54421015801562000b085750600b5442105b1562000b18576001905062000b1d565b600290505b90565b600760009054906101000a900473ffffffffffffffffffffffffffffffffffffffff1681565b62000b5062000d38565b73ffffffffffffffffffffffffffffffffffffffff166000809054906101000a900473ffffffffffffffffffffffffffffffffffffffff1673ffffffffffffffffffffffffffffffffffffffff161462000be1576040517f08c379a000000000000000000000000000000000000000000000000000000000815260040162000bd89062001478565b60405180910390fd5b600073ffffffffffffffffffffffffffffffffffffffff168173ffffffffffffffffffffffffffffffffffffffff16141562000c54576040517f08c379a000000000000000000000000000000000000000000000000000000000815260040162000c4b9062001434565b60405180910390fd5b8073ffffffffffffffffffffffffffffffffffffffff166000809054906101000a900473ffffffffffffffffffffffffffffffffffffffff1673ffffffffffffffffffffffffffffffffffffffff167f8be0079c531659141344cd1fd0a4f28419497f9722a3daafe3b4186f6b6457e060405160405180910390a3806000806101000a81548173ffffffffffffffffffffffffffffffffffffffff021916908373ffffffffffffffffffffffffffffffffffffffff16021790555050565b600460009054906101000a900473ffffffffffffffffffffffffffffffffffffffff1681565b600033905090565b61405b806200177f83390190565b60008135905062000d5f816200174a565b92915050565b600082601f83011262000d7757600080fd5b813562000d8e62000d8882620014c8565b6200149a565b9150808252602083016020830185838301111562000dab57600080fd5b62000db88382846200172d565b50505092915050565b60008135905062000dd28162001764565b92915050565b60006020828403121562000deb57600080fd5b600062000dfb8482850162000d4e565b91505092915050565b60006020828403121562000e1757600080fd5b600062000e278482850162000dc1565b91505092915050565b60008060008060008060c0878903121562000e4a57600080fd5b600062000e5a89828a0162000dc1565b965050602087013567ffffffffffffffff81111562000e7857600080fd5b62000e8689828a0162000d65565b955050604062000e9989828a0162000dc1565b945050606087013567ffffffffffffffff81111562000eb757600080fd5b62000ec589828a0162000d65565b935050608062000ed889828a0162000dc1565b92505060a062000eeb89828a0162000dc1565b9150509295509295509295565b600062000f06838362000f2c565b60208301905092915050565b600062000f208383620011c2565b60208301905092915050565b62000f378162001580565b82525050565b62000f488162001580565b82525050565b62000f59816200156c565b82525050565b600062000f6c826200150f565b62000f7881856200153f565b935062000f8583620014f5565b8060005b8381101562000fbc57815162000fa0888262000ef8565b975062000fad8362001525565b92505060018101905062000f89565b5085935050505092915050565b62000fd4816200151a565b62000fe0818462001550565b925062000fed8262001505565b8060005b838110156200102457815162001008878262000f12565b9650620010158362001532565b92505060018101905062000ff1565b505050505050565b620010378162001594565b82525050565b6200104881620015ed565b82525050565b620010598162001615565b82525050565b6200106a816200163d565b82525050565b6200107b8162001665565b82525050565b6200108c816200168d565b82525050565b6200109d81620016b5565b82525050565b620010ae81620016dd565b82525050565b620010bf8162001705565b82525050565b620010d08162001719565b82525050565b6000620010e56026836200155b565b91507f4f776e61626c653a206e6577206f776e657220697320746865207a65726f206160008301527f64647265737300000000000000000000000000000000000000000000000000006020830152604082019050919050565b60006200114d6010836200155b565b91507f5061757361626c653a20706175736564000000000000000000000000000000006000830152602082019050919050565b60006200118f6020836200155b565b91507f4f776e61626c653a2063616c6c6572206973206e6f7420746865206f776e65726000830152602082019050919050565b620011cd81620015e3565b82525050565b620011de81620015e3565b82525050565b6000602082019050620011fb600083018462000f4e565b92915050565b600060208201905062001218600083018462000f3d565b92915050565b600060608201905062001235600083018662000f4e565b620012446020830185620011d3565b620012536040830184620010c5565b949350505050565b6000602082019050818103600083015262001277818462000f5f565b905092915050565b60006020820190506200129660008301846200102c565b92915050565b6000602082019050620012b360008301846200103d565b92915050565b6000602082019050620012d060008301846200104e565b92915050565b600061018082019050620012ee600083018d6200104e565b620012fd602083018c6200103d565b6200130c604083018b620011d3565b6200131b606083018a62000f4e565b6200132a608083018962000f4e565b6200133960a083018862000f4e565b6200134860c083018762000f4e565b6200135760e083018662000fc9565b62001367610140830185620011d3565b62001377610160830184620011d3565b9b9a5050505050505050505050565b60006020820190506200139d60008301846200105f565b92915050565b6000602082019050620013ba600083018462001070565b92915050565b6000602082019050620013d7600083018462001081565b92915050565b6000602082019050620013f4600083018462001092565b92915050565b6000602082019050620014116000830184620010a3565b92915050565b60006020820190506200142e6000830184620010b4565b92915050565b600060208201905081810360008301526200144f81620010d6565b9050919050565b6000602082019050818103600083015262001471816200113e565b9050919050565b60006020820190508181036000830152620014938162001180565b9050919050565b6000604051905081810181811067ffffffffffffffff82111715620014be57600080fd5b8060405250919050565b600067ffffffffffffffff821115620014e057600080fd5b601f19601f8301169050602081019050919050565b6000819050602082019050919050565b6000819050919050565b600081519050919050565b600060039050919050565b6000602082019050919050565b6000602082019050919050565b600082825260208201905092915050565b600081905092915050565b600082825260208201905092915050565b60006200157982620015c3565b9050919050565b60006200158d82620015c3565b9050919050565b60008115159050919050565b6000819050620015b0826200173c565b919050565b600061ffff82169050919050565b600073ffffffffffffffffffffffffffffffffffffffff82169050919050565b6000819050919050565b6000620015fa8262001601565b9050919050565b60006200160e82620015c3565b9050919050565b6000620016228262001629565b9050919050565b60006200163682620015c3565b9050919050565b60006200164a8262001651565b9050919050565b60006200165e82620015c3565b9050919050565b6000620016728262001679565b9050919050565b60006200168682620015c3565b9050919050565b60006200169a82620016a1565b9050919050565b6000620016ae82620015c3565b9050919050565b6000620016c282620016c9565b9050919050565b6000620016d682620015c3565b9050919050565b6000620016ea82620016f1565b9050919050565b6000620016fe82620015c3565b9050919050565b60006200171282620015a0565b9050919050565b60006200172682620015b5565b9050919050565b82818337600083830152505050565b600481106200174757fe5b50565b62001755816200156c565b81146200176157600080fd5b50565b6200176f81620015e3565b81146200177b57600080fd5b5056fe60806040526000600c553480156200001657600080fd5b506040516200405b3803806200405b83398181016040528101906200003c919062000d3f565b60118054600181600116156101000203166002900480601f016020809104026020016040519081016040528092919081815260200182805460018160011615610100020316600290048015620000d65780601f10620000aa57610100808354040283529160200191620000d6565b820191906000526020600020905b815481529060010190602001808311620000b857829003601f168201915b505050505060128054600181600116156101000203166002900480601f016020809104026020016040519081016040528092919081815260200182805460018160011615610100020316600290048015620001755780601f10620001495761010080835404028352916020019162000175565b820191906000526020600020905b8154815290600101906020018083116200015757829003601f168201915b505050505081600390805190602001906200019292919062000b73565b508060049080519060200190620001ab92919062000b73565b506012600560006101000a81548160ff021916908360ff16021790555050506000620001dc6200052860201b60201c565b905080600560016101000a81548173ffffffffffffffffffffffffffffffffffffffff021916908373ffffffffffffffffffffffffffffffffffffffff1602179055508073ffffffffffffffffffffffffffffffffffffffff16600073ffffffffffffffffffffffffffffffffffffffff167f8be0079c531659141344cd1fd0a4f28419497f9722a3daafe3b4186f6b6457e060405160405180910390a3506000600560156101000a81548160ff021916908315150217905550600160068190555089600760006101000a81548173ffffffffffffffffffffffffffffffffffffffff021916908373ffffffffffffffffffffffffffffffffffffffff16021790555088600860006101000a81548173ffffffffffffffffffffffffffffffffffffffff021916908373ffffffffffffffffffffffffffffffffffffffff16021790555086600960006101000a81548173ffffffffffffffffffffffffffffffffffffffff021916908373ffffffffffffffffffffffffffffffffffffffff16021790555085600a60006101000a81548173ffffffffffffffffffffffffffffffffffffffff021916908373ffffffffffffffffffffffffffffffffffffffff16021790555084600b60006101000a81548173ffffffffffffffffffffffffffffffffffffffff021916908373ffffffffffffffffffffffffffffffffffffffff160217905550600860009054906101000a900473ffffffffffffffffffffffffffffffffffffffff1673ffffffffffffffffffffffffffffffffffffffff1663095ea7b3857fffffffffffffffffffffffffffffffffffffffffffffffffffffffffffffffff6040518363ffffffff1660e01b81526004016200046292919062001074565b602060405180830381600087803b1580156200047d57600080fd5b505af115801562000492573d6000803e3d6000fd5b505050506040513d601f19601f82011682018060405250810190620004b8919062000d13565b50620004cc3330846200053060201b60201c565b5082600060038110620004db57fe5b6020020151600d8190555082600160038110620004f457fe5b6020020151600e81905550826002600381106200050d57fe5b6020020151600f819055505050505050505050505062001334565b600033905090565b6000620005458484846200063160201b60201c565b62000626846200055a6200052860201b60201c565b6200061a856040518060600160405280602881526020016200403360289139600160008b73ffffffffffffffffffffffffffffffffffffffff1673ffffffffffffffffffffffffffffffffffffffff1681526020019081526020016000206000620005ca6200052860201b60201c565b73ffffffffffffffffffffffffffffffffffffffff1673ffffffffffffffffffffffffffffffffffffffff16815260200190815260200160002054620008e560201b62001a2f179092919060201c565b6200094360201b60201c565b600190509392505050565b600073ffffffffffffffffffffffffffffffffffffffff168373ffffffffffffffffffffffffffffffffffffffff161415620006a4576040517f08c379a00000000000000000000000000000000000000000000000000000000081526004016200069b906200112b565b60405180910390fd5b600073ffffffffffffffffffffffffffffffffffffffff168273ffffffffffffffffffffffffffffffffffffffff16141562000717576040517f08c379a00000000000000000000000000000000000000000000000000000000081526004016200070e90620010c5565b60405180910390fd5b6200072a83838362000b1660201b60201c565b6200079d816040518060600160405280602681526020016200400d602691396000808773ffffffffffffffffffffffffffffffffffffffff1673ffffffffffffffffffffffffffffffffffffffff16815260200190815260200160002054620008e560201b62001a2f179092919060201c565b6000808573ffffffffffffffffffffffffffffffffffffffff1673ffffffffffffffffffffffffffffffffffffffff1681526020019081526020016000208190555062000837816000808573ffffffffffffffffffffffffffffffffffffffff1673ffffffffffffffffffffffffffffffffffffffff1681526020019081526020016000205462000b1b60201b62001a8a1790919060201c565b6000808473ffffffffffffffffffffffffffffffffffffffff1673ffffffffffffffffffffffffffffffffffffffff168152602001908152602001600020819055508173ffffffffffffffffffffffffffffffffffffffff168373ffffffffffffffffffffffffffffffffffffffff167fddf252ad1be2c89b69c2b068fc378daa952ba7f163c4a11628f55a4df523b3ef83604051620008d891906200116f565b60405180910390a3505050565b600083831115829062000930576040517f08c379a0000000000000000000000000000000000000000000000000000000008152600401620009279190620010a1565b60405180910390fd5b5060008385039050809150509392505050565b600073ffffffffffffffffffffffffffffffffffffffff168373ffffffffffffffffffffffffffffffffffffffff161415620009b6576040517f08c379a0000000000000000000000000000000000000000000000000000000008152600401620009ad906200114d565b60405180910390fd5b600073ffffffffffffffffffffffffffffffffffffffff168273ffffffffffffffffffffffffffffffffffffffff16141562000a29576040517f08c379a000000000000000000000000000000000000000000000000000000000815260040162000a2090620010e7565b60405180910390fd5b80600160008573ffffffffffffffffffffffffffffffffffffffff1673ffffffffffffffffffffffffffffffffffffffff16815260200190815260200160002060008473ffffffffffffffffffffffffffffffffffffffff1673ffffffffffffffffffffffffffffffffffffffff168152602001908152602001600020819055508173ffffffffffffffffffffffffffffffffffffffff168373ffffffffffffffffffffffffffffffffffffffff167f8c5be1e5ebec7d5bd14f71427d1e84f3dd0314c0f7b2291e5b200ac8c7c3b9258360405162000b0991906200116f565b60405180910390a3505050565b505050565b60008082840190508381101562000b69576040517f08c379a000000000000000000000000000000000000000000000000000000000815260040162000b609062001109565b60405180910390fd5b8091505092915050565b828054600181600116156101000203166002900490600052602060002090601f016020900481019282601f1062000bb657805160ff191683800117855562000be7565b8280016001018555821562000be7579182015b8281111562000be657825182559160200191906001019062000bc9565b5b50905062000bf6919062000bfa565b5090565b62000c1f91905b8082111562000c1b57600081600090555060010162000c01565b5090565b90565b60008151905062000c3381620012b2565b92915050565b600082601f83011262000c4b57600080fd5b600362000c6262000c5c82620011ba565b6200118c565b9150818385602084028201111562000c7957600080fd5b60005b8381101562000cad578162000c92888262000cfc565b84526020840193506020830192505060018101905062000c7c565b5050505092915050565b60008151905062000cc881620012cc565b92915050565b60008151905062000cdf81620012e6565b92915050565b60008151905062000cf68162001300565b92915050565b60008151905062000d0d816200131a565b92915050565b60006020828403121562000d2657600080fd5b600062000d368482850162000cb7565b91505092915050565b6000806000806000806000806000806101808b8d03121562000d6057600080fd5b600062000d708d828e0162000ce5565b9a5050602062000d838d828e0162000cce565b995050604062000d968d828e0162000cfc565b985050606062000da98d828e0162000c22565b975050608062000dbc8d828e0162000c22565b96505060a062000dcf8d828e0162000c22565b95505060c062000de28d828e0162000c22565b94505060e062000df58d828e0162000c39565b93505061014062000e098d828e0162000cfc565b92505061016062000e1d8d828e0162000cfc565b9150509295989b9194979a5092959850565b62000e3a81620011f9565b82525050565b600062000e4d82620011dd565b62000e598185620011e8565b935062000e6b8185602086016200126b565b62000e7681620012a1565b840191505092915050565b600062000e90602383620011e8565b91507f45524332303a207472616e7366657220746f20746865207a65726f206164647260008301527f65737300000000000000000000000000000000000000000000000000000000006020830152604082019050919050565b600062000ef8602283620011e8565b91507f45524332303a20617070726f766520746f20746865207a65726f20616464726560008301527f73730000000000000000000000000000000000000000000000000000000000006020830152604082019050919050565b600062000f60601b83620011e8565b91507f536166654d6174683a206164646974696f6e206f766572666c6f7700000000006000830152602082019050919050565b600062000fa2602583620011e8565b91507f45524332303a207472616e736665722066726f6d20746865207a65726f20616460008301527f64726573730000000000000000000000000000000000000000000000000000006020830152604082019050919050565b60006200100a602483620011e8565b91507f45524332303a20617070726f76652066726f6d20746865207a65726f2061646460008301527f72657373000000000000000000000000000000000000000000000000000000006020830152604082019050919050565b6200106e8162001261565b82525050565b60006040820190506200108b600083018562000e2f565b6200109a602083018462001063565b9392505050565b60006020820190508181036000830152620010bd818462000e40565b905092915050565b60006020820190508181036000830152620010e08162000e81565b9050919050565b60006020820190508181036000830152620011028162000ee9565b9050919050565b60006020820190508181036000830152620011248162000f51565b9050919050565b60006020820190508181036000830152620011468162000f93565b9050919050565b60006020820190508181036000830152620011688162000ffb565b9050919050565b600060208201905062001186600083018462001063565b92915050565b6000604051905081810181811067ffffffffffffffff82111715620011b057600080fd5b8060405250919050565b600067ffffffffffffffff821115620011d257600080fd5b602082029050919050565b600081519050919050565b600082825260208201905092915050565b6000620012068262001241565b9050919050565b60008115159050919050565b60006200122682620011f9565b9050919050565b60006200123a82620011f9565b9050919050565b600073ffffffffffffffffffffffffffffffffffffffff82169050919050565b6000819050919050565b60005b838110156200128b5780820151818401526020810190506200126e565b838111156200129b576000848401525b50505050565b6000601f19601f8301169050919050565b620012bd81620011f9565b8114620012c957600080fd5b50565b620012d7816200120d565b8114620012e357600080fd5b50565b620012f18162001219565b8114620012fd57600080fd5b50565b6200130b816200122d565b81146200131757600080fd5b50565b620013258162001261565b81146200133157600080fd5b50565b612cc980620013446000396000f3fe6080604052600436106101fd5760003560e01c806383197ef01161010d578063b09f1266116100a0578063e32b9cb61161006f578063e32b9cb61461073e578063e5df8b841461075a578063e9d337b814610797578063f2fde38b146107c2578063f4b9fa75146107eb57610204565b8063b09f126614610680578063d28d8852146106ab578063da284dcc146106d6578063dd62ed3e1461070157610204565b806395d89b41116100dc57806395d89b41146105b0578063a34e8fa0146105db578063a457c2d714610606578063a9059cbb1461064357610204565b806383197ef014610518578063894ba8331461052f5780638c7c9e0c1461055a5780638da5cb5b1461058557610204565b8063367edd32116101905780635c975abb1161015f5780635c975abb146104435780636af956bd1461046e57806370a0823114610499578063715018a6146104d657806382633028146104ed57610204565b8063367edd3214610394578063379607f5146103bf57806339509351146103db57806346d1afd31461041857610204565b80631203402f116101cc5780631203402f146102d657806318160ddd1461030157806323b872dd1461032c578063313ce5671461036957610204565b8063030581a71461020657806306fdde0314610231578063095ea7b31461025c5780631193c8791461029957610204565b3661020457005b005b34801561021257600080fd5b5061021b610816565b60405161022891906127b4565b60405180910390f35b34801561023d57600080fd5b5061024661083c565b6040516102539190612805565b60405180910390f35b34801561026857600080fd5b50610283600480360381019061027e91906121d2565b6108de565b604051610290919061272d565b60405180910390f35b3480156102a557600080fd5b506102c060048036038101906102bb919061211e565b6108fc565b6040516102cd919061272d565b60405180910390f35b3480156102e257600080fd5b506102eb610a53565b6040516102f891906127ea565b60405180910390f35b34801561030d57600080fd5b50610316610aba565b6040516103239190612967565b60405180910390f35b34801561033857600080fd5b50610353600480360381019061034e9190612183565b610ac4565b604051610360919061272d565b60405180910390f35b34801561037557600080fd5b5061037e610b9d565b60405161038b9190612982565b60405180910390f35b3480156103a057600080fd5b506103a9610bb4565b6040516103b6919061272d565b60405180910390f35b6103d960048036038101906103d49190612237565b610ca7565b005b3480156103e757600080fd5b5061040260048036038101906103fd91906121d2565b610e30565b60405161040f919061272d565b60405180910390f35b34801561042457600080fd5b5061042d610ee3565b60405161043a9190612967565b60405180910390f35b34801561044f57600080fd5b50610458610ee9565b604051610465919061272d565b60405180910390f35b34801561047a57600080fd5b50610483610f00565b6040516104909190612967565b60405180910390f35b3480156104a557600080fd5b506104c060048036038101906104bb91906120f5565b610f06565b6040516104cd9190612967565b60405180910390f35b3480156104e257600080fd5b506104eb610f4e565b005b3480156104f957600080fd5b506105026110a6565b60405161050f9190612967565b60405180910390f35b34801561052457600080fd5b5061052d6110ac565b005b34801561053b57600080fd5b506105446111ab565b604051610551919061272d565b60405180910390f35b34801561056657600080fd5b5061056f61129f565b60405161057c9190612763565b60405180910390f35b34801561059157600080fd5b5061059a6112c5565b6040516105a791906126c0565b60405180910390f35b3480156105bc57600080fd5b506105c56112ef565b6040516105d29190612805565b60405180910390f35b3480156105e757600080fd5b506105f0611391565b6040516105fd9190612799565b60405180910390f35b34801561061257600080fd5b5061062d600480360381019061062891906121d2565b6113b7565b60405161063a919061272d565b60405180910390f35b34801561064f57600080fd5b5061066a600480360381019061066591906121d2565b611484565b604051610677919061272d565b60405180910390f35b34801561068c57600080fd5b506106956114a2565b6040516106a29190612805565b60405180910390f35b3480156106b757600080fd5b506106c0611540565b6040516106cd9190612805565b60405180910390f35b3480156106e257600080fd5b506106eb6115de565b6040516106f89190612967565b60405180910390f35b34801561070d57600080fd5b5061072860048036038101906107239190612147565b6115e4565b6040516107359190612967565b60405180910390f35b61075860048036038101906107539190612237565b61166b565b005b34801561076657600080fd5b50610781600480360381019061077c9190612237565b6117e0565b60405161078e91906127cf565b60405180910390f35b3480156107a357600080fd5b506107ac61181c565b6040516107b9919061277e565b60405180910390f35b3480156107ce57600080fd5b506107e960048036038101906107e491906120f5565b611842565b005b3480156107f757600080fd5b50610800611a09565b60405161080d9190612748565b60405180910390f35b600960009054906101000a900473ffffffffffffffffffffffffffffffffffffffff1681565b606060038054600181600116156101000203166002900480601f0160208091040260200160405190810160405280929190818152602001828054600181600116156101000203166002900480156108d45780601f106108a9576101008083540402835291602001916108d4565b820191906000526020600020905b8154815290600101906020018083116108b757829003601f168201915b5050505050905090565b60006108f26108eb611adf565b8484611ae7565b6001905092915050565b6000610906611adf565b73ffffffffffffffffffffffffffffffffffffffff16600560019054906101000a900473ffffffffffffffffffffffffffffffffffffffff1673ffffffffffffffffffffffffffffffffffffffff1614610995576040517f08c379a000000000000000000000000000000000000000000000000000000000815260040161098c906128e7565b60405180910390fd5b7f57aa1f68712c4711f028afb5c02e8743a4f17784a52652a611a4a2a9a6dc2bdd826040516109c491906126db565b60405180910390a18173ffffffffffffffffffffffffffffffffffffffff1663894ba8336040518163ffffffff1660e01b8152600401602060405180830381600087803b158015610a1457600080fd5b505af1158015610a28573d6000803e3d6000fd5b505050506040513d601f19601f82011682018060405250810190610a4c919061220e565b9050919050565b6000600d54421015610a685760009050610ab7565b600d544210158015610a7b5750600e5442105b15610a895760019050610ab7565b610a916111ab565b15610a9f5760029050610ab7565b600f54421115610ab25760039050610ab7565b600290505b90565b6000600254905090565b6000610ad1848484611cb2565b610b9284610add611adf565b610b8d85604051806060016040528060288152602001612c4760289139600160008b73ffffffffffffffffffffffffffffffffffffffff1673ffffffffffffffffffffffffffffffffffffffff1681526020019081526020016000206000610b43611adf565b73ffffffffffffffffffffffffffffffffffffffff1673ffffffffffffffffffffffffffffffffffffffff16815260200190815260200160002054611a2f9092919063ffffffff16565b611ae7565b600190509392505050565b6000600560009054906101000a900460ff16905090565b6000610bbe611adf565b73ffffffffffffffffffffffffffffffffffffffff16600560019054906101000a900473ffffffffffffffffffffffffffffffffffffffff1673ffffffffffffffffffffffffffffffffffffffff1614610c4d576040517f08c379a0000000000000000000000000000000000000000000000000000000008152600401610c44906128e7565b60405180910390fd5b600560159054906101000a900460ff16610c9c576040517f08c379a0000000000000000000000000000000000000000000000000000000008152600401610c9390612847565b60405180910390fd5b610ca4611f47565b90565b610caf611adf565b73ffffffffffffffffffffffffffffffffffffffff16600560019054906101000a900473ffffffffffffffffffffffffffffffffffffffff1673ffffffffffffffffffffffffffffffffffffffff1614610d3e576040517f08c379a0000000000000000000000000000000000000000000000000000000008152600401610d35906128e7565b60405180910390fd5b6003806003811115610d4c57fe5b610d54610a53565b6003811115610d5f57fe5b14610d9f576040517f08c379a0000000000000000000000000000000000000000000000000000000008152600401610d9690612907565b60405180910390fd5b600b60009054906101000a900473ffffffffffffffffffffffffffffffffffffffff1673ffffffffffffffffffffffffffffffffffffffff1663db006a75836040518263ffffffff1660e01b8152600401610dfa9190612967565b600060405180830381600087803b158015610e1457600080fd5b505af1158015610e28573d6000803e3d6000fd5b505050505050565b6000610ed9610e3d611adf565b84610ed48560016000610e4e611adf565b73ffffffffffffffffffffffffffffffffffffffff1673ffffffffffffffffffffffffffffffffffffffff16815260200190815260200160002060008973ffffffffffffffffffffffffffffffffffffffff1673ffffffffffffffffffffffffffffffffffffffff16815260200190815260200160002054611a8a90919063ffffffff16565b611ae7565b6001905092915050565b600f5481565b6000600560159054906101000a900460ff16905090565b600d5481565b60008060008373ffffffffffffffffffffffffffffffffffffffff1673ffffffffffffffffffffffffffffffffffffffff168152602001908152602001600020549050919050565b610f56611adf565b73ffffffffffffffffffffffffffffffffffffffff16600560019054906101000a900473ffffffffffffffffffffffffffffffffffffffff1673ffffffffffffffffffffffffffffffffffffffff1614610fe5576040517f08c379a0000000000000000000000000000000000000000000000000000000008152600401610fdc906128e7565b60405180910390fd5b600073ffffffffffffffffffffffffffffffffffffffff16600560019054906101000a900473ffffffffffffffffffffffffffffffffffffffff1673ffffffffffffffffffffffffffffffffffffffff167f8be0079c531659141344cd1fd0a4f28419497f9722a3daafe3b4186f6b6457e060405160405180910390a36000600560016101000a81548173ffffffffffffffffffffffffffffffffffffffff021916908373ffffffffffffffffffffffffffffffffffffffff160217905550565b600c5481565b6110b4611adf565b73ffffffffffffffffffffffffffffffffffffffff16600560019054906101000a900473ffffffffffffffffffffffffffffffffffffffff1673ffffffffffffffffffffffffffffffffffffffff1614611143576040517f08c379a000000000000000000000000000000000000000000000000000000000815260040161113a906128e7565b60405180910390fd5b600560159054906101000a900460ff16611192576040517f08c379a000000000000000000000000000000000000000000000000000000000815260040161118990612847565b60405180910390fd5b3373ffffffffffffffffffffffffffffffffffffffff16ff5b60006111b5611adf565b73ffffffffffffffffffffffffffffffffffffffff16600560019054906101000a900473ffffffffffffffffffffffffffffffffffffffff1673ffffffffffffffffffffffffffffffffffffffff1614611244576040517f08c379a000000000000000000000000000000000000000000000000000000000815260040161123b906128e7565b60405180910390fd5b600560159054906101000a900460ff1615611294576040517f08c379a000000000000000000000000000000000000000000000000000000000815260040161128b906128c7565b60405180910390fd5b61129c611ff1565b90565b600760009054906101000a900473ffffffffffffffffffffffffffffffffffffffff1681565b6000600560019054906101000a900473ffffffffffffffffffffffffffffffffffffffff16905090565b606060048054600181600116156101000203166002900480601f0160208091040260200160405190810160405280929190818152602001828054600181600116156101000203166002900480156113875780601f1061135c57610100808354040283529160200191611387565b820191906000526020600020905b81548152906001019060200180831161136a57829003601f168201915b5050505050905090565b600a60009054906101000a900473ffffffffffffffffffffffffffffffffffffffff1681565b600061147a6113c4611adf565b8461147585604051806060016040528060258152602001612c6f60259139600160006113ee611adf565b73ffffffffffffffffffffffffffffffffffffffff1673ffffffffffffffffffffffffffffffffffffffff16815260200190815260200160002060008a73ffffffffffffffffffffffffffffffffffffffff1673ffffffffffffffffffffffffffffffffffffffff16815260200190815260200160002054611a2f9092919063ffffffff16565b611ae7565b6001905092915050565b6000611498611491611adf565b8484611cb2565b6001905092915050565b60128054600181600116156101000203166002900480601f0160208091040260200160405190810160405280929190818152602001828054600181600116156101000203166002900480156115385780601f1061150d57610100808354040283529160200191611538565b820191906000526020600020905b81548152906001019060200180831161151b57829003601f168201915b505050505081565b60118054600181600116156101000203166002900480601f0160208091040260200160405190810160405280929190818152602001828054600181600116156101000203166002900480156115d65780601f106115ab576101008083540402835291602001916115d6565b820191906000526020600020905b8154815290600101906020018083116115b957829003601f168201915b505050505081565b600e5481565b6000600160008473ffffffffffffffffffffffffffffffffffffffff1673ffffffffffffffffffffffffffffffffffffffff16815260200190815260200160002060008373ffffffffffffffffffffffffffffffffffffffff1673ffffffffffffffffffffffffffffffffffffffff16815260200190815260200160002054905092915050565b600180600381111561167957fe5b611681610a53565b600381111561168c57fe5b146116cc576040517f08c379a00000000000000000000000000000000000000000000000000000000081526004016116c390612907565b60405180910390fd5b600560159054906101000a900460ff161561171c576040517f08c379a0000000000000000000000000000000000000000000000000000000008152600401611713906128c7565b60405180910390fd5b600b60009054906101000a900473ffffffffffffffffffffffffffffffffffffffff1673ffffffffffffffffffffffffffffffffffffffff1663d2d0e066600860009054906101000a900473ffffffffffffffffffffffffffffffffffffffff168460006040518463ffffffff1660e01b815260040161179e939291906126f6565b600060405180830381600087803b1580156117b857600080fd5b505af11580156117cc573d6000803e3d6000fd5b505050506117db333084610ac4565b505050565b601081815481106117ed57fe5b906000526020600020016000915054906101000a900473ffffffffffffffffffffffffffffffffffffffff1681565b600b60009054906101000a900473ffffffffffffffffffffffffffffffffffffffff1681565b61184a611adf565b73ffffffffffffffffffffffffffffffffffffffff16600560019054906101000a900473ffffffffffffffffffffffffffffffffffffffff1673ffffffffffffffffffffffffffffffffffffffff16146118d9576040517f08c379a00000000000000000000000000000000000000000000000000000000081526004016118d0906128e7565b60405180910390fd5b600073ffffffffffffffffffffffffffffffffffffffff168173ffffffffffffffffffffffffffffffffffffffff161415611949576040517f08c379a000000000000000000000000000000000000000000000000000000000815260040161194090612867565b60405180910390fd5b8073ffffffffffffffffffffffffffffffffffffffff16600560019054906101000a900473ffffffffffffffffffffffffffffffffffffffff1673ffffffffffffffffffffffffffffffffffffffff167f8be0079c531659141344cd1fd0a4f28419497f9722a3daafe3b4186f6b6457e060405160405180910390a380600560016101000a81548173ffffffffffffffffffffffffffffffffffffffff021916908373ffffffffffffffffffffffffffffffffffffffff16021790555050565b600860009054906101000a900473ffffffffffffffffffffffffffffffffffffffff1681565b6000838311158290611a77576040517f08c379a0000000000000000000000000000000000000000000000000000000008152600401611a6e9190612805565b60405180910390fd5b5060008385039050809150509392505050565b600080828401905083811015611ad5576040517f08c379a0000000000000000000000000000000000000000000000000000000008152600401611acc906128a7565b60405180910390fd5b8091505092915050565b600033905090565b600073ffffffffffffffffffffffffffffffffffffffff168373ffffffffffffffffffffffffffffffffffffffff161415611b57576040517f08c379a0000000000000000000000000000000000000000000000000000000008152600401611b4e90612947565b60405180910390fd5b600073ffffffffffffffffffffffffffffffffffffffff168273ffffffffffffffffffffffffffffffffffffffff161415611bc7576040517f08c379a0000000000000000000000000000000000000000000000000000000008152600401611bbe90612887565b60405180910390fd5b80600160008573ffffffffffffffffffffffffffffffffffffffff1673ffffffffffffffffffffffffffffffffffffffff16815260200190815260200160002060008473ffffffffffffffffffffffffffffffffffffffff1673ffffffffffffffffffffffffffffffffffffffff168152602001908152602001600020819055508173ffffffffffffffffffffffffffffffffffffffff168373ffffffffffffffffffffffffffffffffffffffff167f8c5be1e5ebec7d5bd14f71427d1e84f3dd0314c0f7b2291e5b200ac8c7c3b92583604051611ca59190612967565b60405180910390a3505050565b600073ffffffffffffffffffffffffffffffffffffffff168373ffffffffffffffffffffffffffffffffffffffff161415611d22576040517f08c379a0000000000000000000000000000000000000000000000000000000008152600401611d1990612927565b60405180910390fd5b600073ffffffffffffffffffffffffffffffffffffffff168273ffffffffffffffffffffffffffffffffffffffff161415611d92576040517f08c379a0000000000000000000000000000000000000000000000000000000008152600401611d8990612827565b60405180910390fd5b611d9d83838361209c565b611e0881604051806060016040528060268152602001612c21602691396000808773ffffffffffffffffffffffffffffffffffffffff1673ffffffffffffffffffffffffffffffffffffffff16815260200190815260200160002054611a2f9092919063ffffffff16565b6000808573ffffffffffffffffffffffffffffffffffffffff1673ffffffffffffffffffffffffffffffffffffffff16815260200190815260200160002081905550611e9b816000808573ffffffffffffffffffffffffffffffffffffffff1673ffffffffffffffffffffffffffffffffffffffff16815260200190815260200160002054611a8a90919063ffffffff16565b6000808473ffffffffffffffffffffffffffffffffffffffff1673ffffffffffffffffffffffffffffffffffffffff168152602001908152602001600020819055508173ffffffffffffffffffffffffffffffffffffffff168373ffffffffffffffffffffffffffffffffffffffff167fddf252ad1be2c89b69c2b068fc378daa952ba7f163c4a11628f55a4df523b3ef83604051611f3a9190612967565b60405180910390a3505050565b600560159054906101000a900460ff16611f96576040517f08c379a0000000000000000000000000000000000000000000000000000000008152600401611f8d90612847565b60405180910390fd5b6000600560156101000a81548160ff0219169083151502179055507f5db9ee0a495bf2e6ff9c91a7834c1ba4fdd244a5e8aa4e537bd38aeae4b073aa611fda611adf565b604051611fe791906126db565b60405180910390a1565b600560159054906101000a900460ff1615612041576040517f08c379a0000000000000000000000000000000000000000000000000000000008152600401612038906128c7565b60405180910390fd5b6001600560156101000a81548160ff0219169083151502179055507f62e78cea01bee320cd4e420270b5ea74000d11b0c9f74754ebdbfc544b05a258612085611adf565b60405161209291906126db565b60405180910390a1565b505050565b6000813590506120b081612bc4565b92915050565b6000813590506120c581612bdb565b92915050565b6000815190506120da81612bf2565b92915050565b6000813590506120ef81612c09565b92915050565b60006020828403121561210757600080fd5b6000612115848285016120a1565b91505092915050565b60006020828403121561213057600080fd5b600061213e848285016120b6565b91505092915050565b6000806040838503121561215a57600080fd5b6000612168858286016120a1565b9250506020612179858286016120a1565b9150509250929050565b60008060006060848603121561219857600080fd5b60006121a6868287016120a1565b93505060206121b7868287016120a1565b92505060406121c8868287016120e0565b9150509250925092565b600080604083850312156121e557600080fd5b60006121f3858286016120a1565b9250506020612204858286016120e0565b9150509250929050565b60006020828403121561222057600080fd5b600061222e848285016120cb565b91505092915050565b60006020828403121561224957600080fd5b6000612257848285016120e0565b91505092915050565b61226981612a41565b82525050565b612278816129b9565b82525050565b612287816129dd565b82525050565b61229681612a53565b82525050565b6122a581612a77565b82525050565b6122b481612a9b565b82525050565b6122c381612abf565b82525050565b6122d281612ae3565b82525050565b6122e181612b07565b82525050565b6122f081612b2b565b82525050565b6122ff81612b3d565b82525050565b60006123108261299d565b61231a81856129a8565b935061232a818560208601612b73565b61233381612ba6565b840191505092915050565b600061234b6023836129a8565b91507f45524332303a207472616e7366657220746f20746865207a65726f206164647260008301527f65737300000000000000000000000000000000000000000000000000000000006020830152604082019050919050565b60006123b16014836129a8565b91507f5061757361626c653a206e6f74207061757365640000000000000000000000006000830152602082019050919050565b60006123f16026836129a8565b91507f4f776e61626c653a206e6577206f776e657220697320746865207a65726f206160008301527f64647265737300000000000000000000000000000000000000000000000000006020830152604082019050919050565b60006124576022836129a8565b91507f45524332303a20617070726f766520746f20746865207a65726f20616464726560008301527f73730000000000000000000000000000000000000000000000000000000000006020830152604082019050919050565b60006124bd601b836129a8565b91507f536166654d6174683a206164646974696f6e206f766572666c6f7700000000006000830152602082019050919050565b60006124fd6010836129a8565b91507f5061757361626c653a20706175736564000000000000000000000000000000006000830152602082019050919050565b600061253d6020836129a8565b91507f4f776e61626c653a2063616c6c6572206973206e6f7420746865206f776e65726000830152602082019050919050565b600061257d6026836129a8565b91507f66756e6374696f6e2063616e6e6f742062652063616c6c65642061742074686960008301527f732074696d6500000000000000000000000000000000000000000000000000006020830152604082019050919050565b60006125e36025836129a8565b91507f45524332303a207472616e736665722066726f6d20746865207a65726f20616460008301527f64726573730000000000000000000000000000000000000000000000000000006020830152604082019050919050565b60006126496024836129a8565b91507f45524332303a20617070726f76652066726f6d20746865207a65726f2061646460008301527f72657373000000000000000000000000000000000000000000000000000000006020830152604082019050919050565b6126ab81612a2a565b82525050565b6126ba81612a34565b82525050565b60006020820190506126d5600083018461226f565b92915050565b60006020820190506126f06000830184612260565b92915050565b600060608201905061270b600083018661226f565b61271860208301856126a2565b61272560408301846122f6565b949350505050565b6000602082019050612742600083018461227e565b92915050565b600060208201905061275d600083018461228d565b92915050565b6000602082019050612778600083018461229c565b92915050565b600060208201905061279360008301846122ab565b92915050565b60006020820190506127ae60008301846122ba565b92915050565b60006020820190506127c960008301846122c9565b92915050565b60006020820190506127e460008301846122d8565b92915050565b60006020820190506127ff60008301846122e7565b92915050565b6000602082019050818103600083015261281f8184612305565b905092915050565b600060208201905081810360008301526128408161233e565b9050919050565b60006020820190508181036000830152612860816123a4565b9050919050565b60006020820190508181036000830152612880816123e4565b9050919050565b600060208201905081810360008301526128a08161244a565b9050919050565b600060208201905081810360008301526128c0816124b0565b9050919050565b600060208201905081810360008301526128e0816124f0565b9050919050565b6000602082019050818103600083015261290081612530565b9050919050565b6000602082019050818103600083015261292081612570565b9050919050565b60006020820190508181036000830152612940816125d6565b9050919050565b600060208201905081810360008301526129608161263c565b9050919050565b600060208201905061297c60008301846126a2565b92915050565b600060208201905061299760008301846126b1565b92915050565b600081519050919050565b600082825260208201905092915050565b60006129c482612a0a565b9050919050565b60006129d682612a0a565b9050919050565b60008115159050919050565b60008190506129f782612bb7565b919050565b600061ffff82169050919050565b600073ffffffffffffffffffffffffffffffffffffffff82169050919050565b6000819050919050565b600060ff82169050919050565b6000612a4c82612b4f565b9050919050565b6000612a5e82612a65565b9050919050565b6000612a7082612a0a565b9050919050565b6000612a8282612a89565b9050919050565b6000612a9482612a0a565b9050919050565b6000612aa682612aad565b9050919050565b6000612ab882612a0a565b9050919050565b6000612aca82612ad1565b9050919050565b6000612adc82612a0a565b9050919050565b6000612aee82612af5565b9050919050565b6000612b0082612a0a565b9050919050565b6000612b1282612b19565b9050919050565b6000612b2482612a0a565b9050919050565b6000612b36826129e9565b9050919050565b6000612b48826129fc565b9050919050565b6000612b5a82612b61565b9050919050565b6000612b6c82612a0a565b9050919050565b60005b83811015612b91578082015181840152602081019050612b76565b83811115612ba0576000848401525b50505050565b6000601f19601f8301169050919050565b60048110612bc157fe5b50565b612bcd816129b9565b8114612bd857600080fd5b50565b612be4816129cb565b8114612bef57600080fd5b50565b612bfb816129dd565b8114612c0657600080fd5b50565b612c1281612a2a565b8114612c1d57600080fd5b5056fe45524332303a207472616e7366657220616d6f756e7420657863656564732062616c616e636545524332303a207472616e7366657220616d6f756e74206578636565647320616c6c6f77616e636545524332303a2064656372656173656420616c6c6f77616e63652062656c6f77207a65726fa2646970667358221220086216aaba68047de766f3be5f9b8b1e8ab423cfebe01438a6be98e6ff5f321664736f6c6343000608003345524332303a207472616e7366657220616d6f756e7420657863656564732062616c616e636545524332303a207472616e7366657220616d6f756e74206578636565647320616c6c6f77616e6365a2646970667358221220a37465737ea9aca29cc8c6030de1b186cfb52207e057f187b42fd6a880046d0164736f6c63430006080033",
  "immutableReferences": {},
  "source": "//SPDX-License-Identifier: UNLICENSED\npragma solidity ^0.6.0;\npragma experimental ABIEncoderV2;\n\nimport '@openzeppelin/contracts/access/Ownable.sol';\nimport '@openzeppelin/contracts/utils/Pausable.sol';\nimport '@openzeppelin/contracts/math/SafeMath.sol';\nimport './Forward.sol';\nimport './interfaces/IAave.sol';\nimport './interfaces/IDai.sol';\nimport './interfaces/iETH.sol';\n\n/// @title Forward Factory contract\n/// @notice This contract allows users to create a new (Forward contract) position into the Aave protocol\ncontract ForwardFactory is Ownable, Pausable {\n    address payable[] public listedForwards;\n    address public newPosition;\n\n    Eth public eth;\n    Dai public dai;\n    IaEth public aEth;\n    IaDai public aDai;\n    IAaveLendingPool public aaveLendingPool;\n    IAaveLendingPoolCore public aaveLendingPoolCore;\n    uint256 positionID = 0;\n    uint _createdForward;\n    uint expirationTime;\n    /* mapping(string => address) Ethername;\n    mapping(string => address) Dainame; */\n\n    enum States {WAITING, OPEN, LOCKED, SETTLED}\n\n    /* event ForwardCreated(address contractAddress); */\n    event ForwardCreated(address contractAddress);\n    event ForwardPaused(address contractAddress);\n    event ForwardDestroyed(address contractAddress);\n    event StateChanged(States indexed state);\n\n\n      ////////////////////////////////////\n      //////// CONSTRUCTOR ///////////////\n      ////////////////////////////////////\n\n    constructor(\n        Eth _ethAddress,\n        Dai _daiAddress,\n        IaEth _aEthAddress,\n        IaDai _aDaiAddress,\n        IAaveLendingPool _aaveLpAddress,\n        IAaveLendingPoolCore _aaveLpcoreAddress)\n        public {\n        dai = _daiAddress;\n        eth = _ethAddress;\n        aEth = _aEthAddress;\n        aDai = _aDaiAddress;\n        aaveLendingPool = _aaveLpAddress;\n        aaveLendingPoolCore = _aaveLpcoreAddress;\n\n        // Approve for ERC20\n        dai.approve(address(_aaveLpcoreAddress), type(uint256).max);\n    }\n\n\n      ////////////////////////////////////\n      //////// POSITION SETUP ////////////\n      ////////////////////////////////////\n\n    /// @notice This contract is the foundation for any created Forward contract\n    /// @dev Owner deposits token into aaveLendingPoolCore by calling deposit function\n    /// @param _value Value of the position in Eth or ERC20\n    /// @param _tokenName symbol of the token deposited\n    /// @param _exchangeRate fixed amount of ETH or ERC20 to be received upon settlement date\n    /// @param _exchangeToken symbol of the token to match the position\n    /// @param _expirationTime time in minutes, hours or days that the position will be opened to be matched\n    /// @param _executingTime When the position reaches settlement date\n\n\n    function createForward(\n        uint256 _value,\n        string memory _tokenName,\n        uint256 _exchangeRate,\n        string memory _exchangeToken,\n        uint256 _expirationTime,\n        uint256 _executingTime)\n        public payable onlyOwner whenNotPaused returns (Forward) {\n        positionID ++;\n        _createdForward = block.timestamp;\n        expirationTime = _expirationTime;\n        aaveLendingPool.deposit(address(eth), _value, 0);\n          Forward newContract = new Forward({\n          _positionID:positionID,\n          _ethAddress: eth,\n          _daiAddress: dai,\n          _aEth: address(aEth),\n          _aDai: address(aDai),\n          _aaveLendingPool: address(aaveLendingPool),\n          _aaveLendingPoolCore: address(aaveLendingPoolCore),\n          _contractTimes: [_createdForward, _expirationTime, _executingTime],\n          _value: msg.value,\n          _exchangeRate: _exchangeRate\n          });\n          address payable newAddress = address(newContract);\n          listedForwards.push(newAddress);\n          newPosition = newAddress;\n          emit ForwardCreated(address(msg.sender));\n          return newContract;\n          }\n\n\n\n        ////////////////////////////////////\n        ////////// VIEW FUNCTIONS //////////\n        ////////////////////////////////////\n        function getPositionState() public payable returns (States) {\n            if (now < _createdForward) {\n                return States.WAITING;\n            }\n\n            if (now >= _createdForward && now < expirationTime) {\n                return States.OPEN;\n            }\n\n            /* if (disableContract() ) {\n                return States.LOCKED;\n            } */\n\n            return States.LOCKED;\n        }\n\n\n        function getPositions() public view returns (address payable[] memory) {\n            return listedForwards;\n        }\n}\n",
  "sourcePath": "/Users/pake/ForwardFactory/contracts/ForwardFactory.sol",
  "compiler": {
    "name": "solc",
    "version": "0.6.8+commit.0bbfe453.Emscripten.clang"
  },
  "schemaVersion": "3.2.3",
  "updatedAt": "2020-08-12T19:16:04.796Z",
  "devdoc": {
    "methods": {
      "createForward(uint256,string,uint256,string,uint256,uint256)": {
        "details": "Owner deposits token into aaveLendingPoolCore by calling deposit function",
        "params": {
          "_exchangeRate": "fixed amount of ETH or ERC20 to be received upon settlement date",
          "_exchangeToken": "symbol of the token to match the position",
          "_executingTime": "When the position reaches settlement date",
          "_expirationTime": "time in minutes, hours or days that the position will be opened to be matched",
          "_tokenName": "symbol of the token deposited",
          "_value": "Value of the position in Eth or ERC20"
        }
      },
      "owner()": {
        "details": "Returns the address of the current owner."
      },
      "paused()": {
        "details": "Returns true if the contract is paused, and false otherwise."
      },
      "renounceOwnership()": {
        "details": "Leaves the contract without owner. It will not be possible to call `onlyOwner` functions anymore. Can only be called by the current owner.     * NOTE: Renouncing ownership will leave the contract without an owner, thereby removing any functionality that is only available to the owner."
      },
      "transferOwnership(address)": {
        "details": "Transfers ownership of the contract to a new account (`newOwner`). Can only be called by the current owner."
      }
    },
    "title": "Forward Factory contract"
  },
  "userdoc": {
    "methods": {
      "constructor": "///////////////////////////////// ///// CONSTRUCTOR /////////////// /////////////////////////////////",
      "createForward(uint256,string,uint256,string,uint256,uint256)": {
        "notice": "///////////////////////////////// ///// POSITION SETUP //////////// /////////////////////////////////This contract is the foundation for any created Forward contract"
      },
      "getPositionState()": {
        "notice": "///////////////////////////////// /////// VIEW FUNCTIONS ////////// /////////////////////////////////"
      }
    },
    "notice": "This contract allows users to create a new (Forward contract) position into the Aave protocol"
  }
}